{
  "transactions": [
    {
      "hash": "0xea619860d30b26573e91875a01aaf71c67921f2b482694ab27cb28314181c3f9",
      "transactionType": "CALL",
      "contractName": null,
      "contractAddress": "0x9b75e1bac0e865a6268e420f719fbb89e3abd412",
      "function": "mintNFT(string)",
      "arguments": [
        "\"ipfs://bafybeidlaguiysgxg4n24uqrqqzxjwfuhdpkg7y5l62nixn23ikhzw5p4u/sai.png\""
      ],
      "transaction": {
        "from": "0x944de75ae5e4e9243ff22a32cde7a50a0754d592",
        "to": "0x9b75e1bac0e865a6268e420f719fbb89e3abd412",
        "gas": "0x31ce5",
        "value": "0x0",
        "input": "0xfb37e8830000000000000000000000000000000000000000000000000000000000000020000000000000000000000000000000000000000000000000000000000000004a697066733a2f2f62616679626569646c616775697973677867346e323475717271717a786a7766756864706b673779356c36326e69786e3233696b687a77357034752f7361692e706e6700000000000000000000000000000000000000000000",
        "nonce": "0x2",
        "chainId": "0xaa36a7"
      },
      "additionalContracts": [],
      "isFixedGasLimit": false
    }
  ],
  "receipts": [
    {
      "status": "0x1",
      "cumulativeGasUsed": "0x7116c5",
      "logs": [
        {
          "address": "0x9b75e1bac0e865a6268e420f719fbb89e3abd412",
          "topics": [
            "0xddf252ad1be2c89b69c2b068fc378daa952ba7f163c4a11628f55a4df523b3ef",
            "0x0000000000000000000000000000000000000000000000000000000000000000",
            "0x000000000000000000000000944de75ae5e4e9243ff22a32cde7a50a0754d592",
            "0x0000000000000000000000000000000000000000000000000000000000000001"
          ],
          "data": "0x",
          "blockHash": "0x77dac499466b3336ec2b6435652057a2892321edb54ce95bb9e54d920a213a54",
          "blockNumber": "0x60d61b",
          "transactionHash": "0xea619860d30b26573e91875a01aaf71c67921f2b482694ab27cb28314181c3f9",
          "transactionIndex": "0x37",
          "logIndex": "0x5d",
          "removed": false
        }
      ],
      "logsBloom": "0x00000000000000000000000000000000000000000000000000000000000000000000000000000100000000000000000000000000000000000000000000040000000000000000000000000008000000000000000000040000000400000000000000000000020000000000000000000800000080000000000000000010000000000000000000000000000000000000004000000000000000000100000000000000000000000000000000000000000000000000100000000000000000000000000000000002000000000000000000000000000000000000000000000000000060000000000000000000000000000000000000000000000000000000000000000000",
      "type": "0x2",
      "transactionHash": "0xea619860d30b26573e91875a01aaf71c67921f2b482694ab27cb28314181c3f9",
      "transactionIndex": "0x37",
      "blockHash": "0x77dac499466b3336ec2b6435652057a2892321edb54ce95bb9e54d920a213a54",
      "blockNumber": "0x60d61b",
      "gasUsed": "0x240f0",
      "effectiveGasPrice": "0xa2bf1e",
      "from": "0x944de75ae5e4e9243ff22a32cde7a50a0754d592",
      "to": "0x9b75e1bac0e865a6268e420f719fbb89e3abd412",
      "contractAddress": null
    }
  ],
  "libraries": [],
  "pending": [],
  "returns": {},
  "timestamp": 1721501931,
  "chain": 11155111,
  "commit": "96b8beb"
}