{
  "transactions": [
    {
      "hash": "0xac92c3a49cd0362610beeaa1bcbdd4e16bdb04d96935d013fa813db419ec942a",
      "transactionType": "CALL",
      "contractName": null,
      "contractAddress": "0x20b033da3b8bc11bdb852d64658c27126eb6c330",
      "function": "mintNFT(string)",
      "arguments": [
        "\"https://brown-tragic-herring-387.mypinata.cloud/ipfs/QmeHpwrqgCnbTMApZ9vG9mzMExFnyT4PHPyKThS5KfD2Zs\""
      ],
      "transaction": {
        "from": "0x944de75ae5e4e9243ff22a32cde7a50a0754d592",
        "to": "0x20b033da3b8bc11bdb852d64658c27126eb6c330",
        "gas": "0x3ccfd",
        "value": "0x0",
        "input": "0xfb37e8830000000000000000000000000000000000000000000000000000000000000020000000000000000000000000000000000000000000000000000000000000006368747470733a2f2f62726f776e2d7472616769632d68657272696e672d3338372e6d7970696e6174612e636c6f75642f697066732f516d65487077727167436e62544d41705a397647396d7a4d4578466e795434504850794b546853354b6644325a730000000000000000000000000000000000000000000000000000000000",
        "nonce": "0xe",
        "chainId": "0xaa36a7"
      },
      "additionalContracts": [],
      "isFixedGasLimit": false
    }
  ],
  "receipts": [
    {
      "status": "0x1",
      "cumulativeGasUsed": "0x58e5a5",
      "logs": [
        {
          "address": "0x20b033da3b8bc11bdb852d64658c27126eb6c330",
          "topics": [
            "0xddf252ad1be2c89b69c2b068fc378daa952ba7f163c4a11628f55a4df523b3ef",
            "0x0000000000000000000000000000000000000000000000000000000000000000",
            "0x000000000000000000000000944de75ae5e4e9243ff22a32cde7a50a0754d592",
            "0x0000000000000000000000000000000000000000000000000000000000000002"
          ],
          "data": "0x",
          "blockHash": "0x34bbf579bd1061c6ba3dfb76ffac2bd33919c80efbbfea3a47224255a78ac070",
          "blockNumber": "0x60d71f",
          "transactionHash": "0xac92c3a49cd0362610beeaa1bcbdd4e16bdb04d96935d013fa813db419ec942a",
          "transactionIndex": "0x2f",
          "logIndex": "0x3d",
          "removed": false
        }
      ],
      "logsBloom": "0x04000000000000000000000000000000000000000004000000000000000000000000000000000100000000000000000000000000000000000000000000000000000000000000000000000008000000000000000000000000000400000000000000000000020000000000000000000800000080000000000000000010000000000000000000000000000000000000000000000000000000000000000000000000000000000000000000000120000020000000000000000000000000000000000000000002000000000000000000000000000000000000000000000000000020000000000000000000000000000000000000000000008000000000000000000000",
      "type": "0x2",
      "transactionHash": "0xac92c3a49cd0362610beeaa1bcbdd4e16bdb04d96935d013fa813db419ec942a",
      "transactionIndex": "0x2f",
      "blockHash": "0x34bbf579bd1061c6ba3dfb76ffac2bd33919c80efbbfea3a47224255a78ac070",
      "blockNumber": "0x60d71f",
      "gasUsed": "0x2994b",
      "effectiveGasPrice": "0x3ac235",
      "from": "0x944de75ae5e4e9243ff22a32cde7a50a0754d592",
      "to": "0x20b033da3b8bc11bdb852d64658c27126eb6c330",
      "contractAddress": null
    }
  ],
  "libraries": [],
  "pending": [],
  "returns": {},
  "timestamp": 1721505881,
  "chain": 11155111,
  "commit": "96b8beb"
}