{
  "transactions": [
    {
      "hash": "0x86178de8349bbb6c79cd9e2563352c08e547ba9d4efecfd90c1f423923b19d01",
      "transactionType": "CALL",
      "contractName": null,
      "contractAddress": "0x9b75e1bac0e865a6268e420f719fbb89e3abd412",
      "function": "mintNFT(string)",
      "arguments": [
        "\"ipfs://QmXVVxD6U2tu5NcYxYL8X9yuRtEvE1qkqq9Ec4S1Keaqm1/sai.json\""
      ],
      "transaction": {
        "from": "0x944de75ae5e4e9243ff22a32cde7a50a0754d592",
        "to": "0x9b75e1bac0e865a6268e420f719fbb89e3abd412",
        "gas": "0x2cb71",
        "value": "0x0",
        "input": "0xfb37e8830000000000000000000000000000000000000000000000000000000000000020000000000000000000000000000000000000000000000000000000000000003e697066733a2f2f516d58565678443655327475354e635978594c3858397975527445764531716b71713945633453314b6561716d312f7361692e6a736f6e0000",
        "nonce": "0x6",
        "chainId": "0xaa36a7"
      },
      "additionalContracts": [],
      "isFixedGasLimit": false
    }
  ],
  "receipts": [
    {
      "status": "0x1",
      "cumulativeGasUsed": "0x870ad6",
      "logs": [
        {
          "address": "0x9b75e1bac0e865a6268e420f719fbb89e3abd412",
          "topics": [
            "0xddf252ad1be2c89b69c2b068fc378daa952ba7f163c4a11628f55a4df523b3ef",
            "0x0000000000000000000000000000000000000000000000000000000000000000",
            "0x000000000000000000000000944de75ae5e4e9243ff22a32cde7a50a0754d592",
            "0x0000000000000000000000000000000000000000000000000000000000000005"
          ],
          "data": "0x",
          "blockHash": "0x14333a85688cd1e621ba19ba444aefde045d934ae94ec2ac9d1d829e4fe72aad",
          "blockNumber": "0x60d676",
          "transactionHash": "0x86178de8349bbb6c79cd9e2563352c08e547ba9d4efecfd90c1f423923b19d01",
          "transactionIndex": "0x3e",
          "logIndex": "0x3d",
          "removed": false
        }
      ],
      "logsBloom": "0x00000000000000000000000000000000000000000000000000000000000000000000000000000100000000000000000000000000000000000000000000000000000010000000000000000008000000000000000000000000000400000000000000000000020000000000000000000800000080000000000000000010000000000000000000000000000000000000005000000800000000000100000000000000000000000000000000000000000000000000100000000000000000000000000000000002000000000000000000000000000000000000000000000000000020000000000000000000000000000000000000000000000000000000000000000000",
      "type": "0x2",
      "transactionHash": "0x86178de8349bbb6c79cd9e2563352c08e547ba9d4efecfd90c1f423923b19d01",
      "transactionIndex": "0x3e",
      "blockHash": "0x14333a85688cd1e621ba19ba444aefde045d934ae94ec2ac9d1d829e4fe72aad",
      "blockNumber": "0x60d676",
      "gasUsed": "0x1e931",
      "effectiveGasPrice": "0x5f8e34c",
      "from": "0x944de75ae5e4e9243ff22a32cde7a50a0754d592",
      "to": "0x9b75e1bac0e865a6268e420f719fbb89e3abd412",
      "contractAddress": null
    }
  ],
  "libraries": [],
  "pending": [],
  "returns": {},
  "timestamp": 1721503372,
  "chain": 11155111,
  "commit": "96b8beb"
}