{
  "transactions": [
    {
      "hash": "0x085ba309271e183fd37f65694b76e32c27a92db5f842a9f3588e6b4a51f66bb2",
      "transactionType": "CALL",
      "contractName": null,
      "contractAddress": "0x9b75e1bac0e865a6268e420f719fbb89e3abd412",
      "function": "mintNFT(string)",
      "arguments": [
        "\"ipfs://bafybeicv5l4y4la3v6yzgrl5f4ytsfp24smurojwiluykjit6nvlsqspti/\""
      ],
      "transaction": {
        "from": "0x944de75ae5e4e9243ff22a32cde7a50a0754d592",
        "to": "0x9b75e1bac0e865a6268e420f719fbb89e3abd412",
        "gas": "0x31c70",
        "value": "0x0",
        "input": "0xfb37e88300000000000000000000000000000000000000000000000000000000000000200000000000000000000000000000000000000000000000000000000000000043697066733a2f2f626166796265696376356c3479346c61337636797a67726c35663479747366703234736d75726f6a77696c75796b6a6974366e766c7371737074692f0000000000000000000000000000000000000000000000000000000000",
        "nonce": "0xa",
        "chainId": "0xaa36a7"
      },
      "additionalContracts": [],
      "isFixedGasLimit": false
    }
  ],
  "receipts": [
    {
      "status": "0x1",
      "cumulativeGasUsed": "0xe365f2",
      "logs": [
        {
          "address": "0x9b75e1bac0e865a6268e420f719fbb89e3abd412",
          "topics": [
            "0xddf252ad1be2c89b69c2b068fc378daa952ba7f163c4a11628f55a4df523b3ef",
            "0x0000000000000000000000000000000000000000000000000000000000000000",
            "0x000000000000000000000000944de75ae5e4e9243ff22a32cde7a50a0754d592",
            "0x0000000000000000000000000000000000000000000000000000000000000009"
          ],
          "data": "0x",
          "blockHash": "0x65b27db546b85dcfa4d0c0afde2282e3b2f94a7d2536a32b38025e7c884e9b1a",
          "blockNumber": "0x60d6d7",
          "transactionHash": "0x085ba309271e183fd37f65694b76e32c27a92db5f842a9f3588e6b4a51f66bb2",
          "transactionIndex": "0x57",
          "logIndex": "0xb5",
          "removed": false
        }
      ],
      "logsBloom": "0x00000000000000000000000000000000000000000000000000000000000000000000000000000100000000000000000000000000000000000000000000200000000000000000000000000008000000000000000000000000000400000000000000000000020000000000000000000800000080000000000000000010000000000000000000000000000000000000004000001000000000000100000000000000000000000000000000000000000000000000100000000000000000000000000000000002000000000000000000000000000000000000000000000000000020000000000000000000000000000000000000000000000000000000000000800000",
      "type": "0x2",
      "transactionHash": "0x085ba309271e183fd37f65694b76e32c27a92db5f842a9f3588e6b4a51f66bb2",
      "transactionIndex": "0x57",
      "blockHash": "0x65b27db546b85dcfa4d0c0afde2282e3b2f94a7d2536a32b38025e7c884e9b1a",
      "blockNumber": "0x60d6d7",
      "gasUsed": "0x2409c",
      "effectiveGasPrice": "0x1e19f200",
      "from": "0x944de75ae5e4e9243ff22a32cde7a50a0754d592",
      "to": "0x9b75e1bac0e865a6268e420f719fbb89e3abd412",
      "contractAddress": null
    }
  ],
  "libraries": [],
  "pending": [],
  "returns": {},
  "timestamp": 1721504886,
  "chain": 11155111,
  "commit": "96b8beb"
}