{
  "transactions": [
    {
      "hash": "0x6ba0b7c9a34c250e761b353d27d9060fa53812ff0da3307da7edfc2e8e673a83",
      "transactionType": "CALL",
      "contractName": null,
      "contractAddress": "0x9b75e1bac0e865a6268e420f719fbb89e3abd412",
      "function": "mintNFT(string)",
      "arguments": [
        "\"ipfs://bafybeia5uwb5zhd2ha5geosw2sj3g7ojzl2mzrdqnft73zebotsmc7fm34/\""
      ],
      "transaction": {
        "from": "0x944de75ae5e4e9243ff22a32cde7a50a0754d592",
        "to": "0x9b75e1bac0e865a6268e420f719fbb89e3abd412",
        "gas": "0x3d4f7",
        "value": "0x0",
        "input": "0xfb37e88300000000000000000000000000000000000000000000000000000000000000200000000000000000000000000000000000000000000000000000000000000043697066733a2f2f626166796265696135757762357a68643268613567656f737732736a3367376f6a7a6c326d7a7264716e667437337a65626f74736d6337666d33342f0000000000000000000000000000000000000000000000000000000000",
        "nonce": "0x1",
        "chainId": "0xaa36a7"
      },
      "additionalContracts": [],
      "isFixedGasLimit": false
    }
  ],
  "receipts": [
    {
      "status": "0x1",
      "cumulativeGasUsed": "0x3a190a",
      "logs": [
        {
          "address": "0x9b75e1bac0e865a6268e420f719fbb89e3abd412",
          "topics": [
            "0xddf252ad1be2c89b69c2b068fc378daa952ba7f163c4a11628f55a4df523b3ef",
            "0x0000000000000000000000000000000000000000000000000000000000000000",
            "0x000000000000000000000000944de75ae5e4e9243ff22a32cde7a50a0754d592",
            "0x0000000000000000000000000000000000000000000000000000000000000000"
          ],
          "data": "0x",
          "blockHash": "0x80e9d23a968ea6c183fa84d05bd4efc554fd71576dba9078e8d9e36a0aab524b",
          "blockNumber": "0x60d5bd",
          "transactionHash": "0x6ba0b7c9a34c250e761b353d27d9060fa53812ff0da3307da7edfc2e8e673a83",
          "transactionIndex": "0x15",
          "logIndex": "0x28",
          "removed": false
        }
      ],
      "logsBloom": "0x00000000000000000000000000000000000000000000000000000000000000000000000000000100000000000000000000000000000000000000000000000000000000000000000000000008000000000000000000000000000400000000000000000000020000000000000000000800000080000000000000000010000000000000000000000000000000000000004000000000000000000100000000000000000000000000000000000000000000000000100000000000000000000000000000000002000000000000000000000000000000000000000000000000000020000000000000000000000000000000000000000000000000000000000000000000",
      "type": "0x2",
      "transactionHash": "0x6ba0b7c9a34c250e761b353d27d9060fa53812ff0da3307da7edfc2e8e673a83",
      "transactionIndex": "0x15",
      "blockHash": "0x80e9d23a968ea6c183fa84d05bd4efc554fd71576dba9078e8d9e36a0aab524b",
      "blockNumber": "0x60d5bd",
      "gasUsed": "0x2c634",
      "effectiveGasPrice": "0x3c020b19",
      "from": "0x944de75ae5e4e9243ff22a32cde7a50a0754d592",
      "to": "0x9b75e1bac0e865a6268e420f719fbb89e3abd412",
      "contractAddress": null
    }
  ],
  "libraries": [],
  "pending": [],
  "returns": {},
  "timestamp": 1721500430,
  "chain": 11155111,
  "commit": "96b8beb"
}