{
  "transactions": [
    {
      "hash": "0x40a8f48eb64fff46247a2abb9fb9e26262865b66a31428b064a20c42501f19bb",
      "transactionType": "CALL",
      "contractName": null,
      "contractAddress": "0x20b033da3b8bc11bdb852d64658c27126eb6c330",
      "function": "mintNFT(string)",
      "arguments": [
        "\"https://brown-tragic-herring-387.mypinata.cloud/ipfs/QmeHpwrqgCnbTMApZ9vG9mzMExFnyT4PHPyKThS5KfD2Zs\""
      ],
      "transaction": {
        "from": "0x944de75ae5e4e9243ff22a32cde7a50a0754d592",
        "to": "0x20b033da3b8bc11bdb852d64658c27126eb6c330",
        "gas": "0x3ccfd",
        "value": "0x0",
        "input": "0xfb37e8830000000000000000000000000000000000000000000000000000000000000020000000000000000000000000000000000000000000000000000000000000006368747470733a2f2f62726f776e2d7472616769632d68657272696e672d3338372e6d7970696e6174612e636c6f75642f697066732f516d65487077727167436e62544d41705a397647396d7a4d4578466e795434504850794b546853354b6644325a730000000000000000000000000000000000000000000000000000000000",
        "nonce": "0xd",
        "chainId": "0xaa36a7"
      },
      "additionalContracts": [],
      "isFixedGasLimit": false
    }
  ],
  "receipts": [
    {
      "status": "0x1",
      "cumulativeGasUsed": "0x717968",
      "logs": [
        {
          "address": "0x20b033da3b8bc11bdb852d64658c27126eb6c330",
          "topics": [
            "0xddf252ad1be2c89b69c2b068fc378daa952ba7f163c4a11628f55a4df523b3ef",
            "0x0000000000000000000000000000000000000000000000000000000000000000",
            "0x000000000000000000000000944de75ae5e4e9243ff22a32cde7a50a0754d592",
            "0x0000000000000000000000000000000000000000000000000000000000000001"
          ],
          "data": "0x",
          "blockHash": "0x1c68ea6016e0e581eff35cad0f873c9358bdb05a5b84e6a23a1c97c646971f50",
          "blockNumber": "0x60d718",
          "transactionHash": "0x40a8f48eb64fff46247a2abb9fb9e26262865b66a31428b064a20c42501f19bb",
          "transactionIndex": "0x38",
          "logIndex": "0x5a",
          "removed": false
        }
      ],
      "logsBloom": "0x00000000000000000000000000000000000000000004000000000000000000000000000000000100000000000000000000000000000000000000000000040000000000000000000000000008000000000000000000040000000400000000000000000000020000000000000000000800000080000000000000000010000000000000000000000000000000000000000000000000000000000000000000000000000000000000000000000020000020000000000000000000000000000000000000000002000000000000000000000000000000000000000000000000000060000000000000000000000000000000000000000000000000000000000000000000",
      "type": "0x2",
      "transactionHash": "0x40a8f48eb64fff46247a2abb9fb9e26262865b66a31428b064a20c42501f19bb",
      "transactionIndex": "0x38",
      "blockHash": "0x1c68ea6016e0e581eff35cad0f873c9358bdb05a5b84e6a23a1c97c646971f50",
      "blockNumber": "0x60d718",
      "gasUsed": "0x2994b",
      "effectiveGasPrice": "0x437c34",
      "from": "0x944de75ae5e4e9243ff22a32cde7a50a0754d592",
      "to": "0x20b033da3b8bc11bdb852d64658c27126eb6c330",
      "contractAddress": null
    }
  ],
  "libraries": [],
  "pending": [],
  "returns": {},
  "timestamp": 1721505783,
  "chain": 11155111,
  "commit": "96b8beb"
}