{
  "transactions": [
    {
      "hash": "0x5a6dc5a4e5d2900021cd5d45b81b56ab28ad6658bbb0d4cdb6ff6b7faaa8e42b",
      "transactionType": "CALL",
      "contractName": null,
      "contractAddress": "0x9b75e1bac0e865a6268e420f719fbb89e3abd412",
      "function": "mintNFT(string)",
      "arguments": [
        "\"ipfs://QmczypTdVFayJzFUur7kRmZ2hrooi2KadNCU3VpREmHkEq/sai.json\""
      ],
      "transaction": {
        "from": "0x944de75ae5e4e9243ff22a32cde7a50a0754d592",
        "to": "0x9b75e1bac0e865a6268e420f719fbb89e3abd412",
        "gas": "0x2cb71",
        "value": "0x0",
        "input": "0xfb37e8830000000000000000000000000000000000000000000000000000000000000020000000000000000000000000000000000000000000000000000000000000003e697066733a2f2f516d637a79705464564661794a7a46557572376b526d5a3268726f6f69324b61644e435533567052456d486b45712f7361692e6a736f6e0000",
        "nonce": "0x7",
        "chainId": "0xaa36a7"
      },
      "additionalContracts": [],
      "isFixedGasLimit": false
    }
  ],
  "receipts": [
    {
      "status": "0x1",
      "cumulativeGasUsed": "0x9a443e",
      "logs": [
        {
          "address": "0x9b75e1bac0e865a6268e420f719fbb89e3abd412",
          "topics": [
            "0xddf252ad1be2c89b69c2b068fc378daa952ba7f163c4a11628f55a4df523b3ef",
            "0x0000000000000000000000000000000000000000000000000000000000000000",
            "0x000000000000000000000000944de75ae5e4e9243ff22a32cde7a50a0754d592",
            "0x0000000000000000000000000000000000000000000000000000000000000006"
          ],
          "data": "0x",
          "blockHash": "0x4cc240d51280a9371898519ae72bf45a9e29e2bef40c78c4be5bfa28589ff57f",
          "blockNumber": "0x60d696",
          "transactionHash": "0x5a6dc5a4e5d2900021cd5d45b81b56ab28ad6658bbb0d4cdb6ff6b7faaa8e42b",
          "transactionIndex": "0x53",
          "logIndex": "0x66",
          "removed": false
        }
      ],
      "logsBloom": "0x00000000000000000000000000000000000000000000000000000000000000000000000000000100000000000000000000000000000400000000000000000000000000000000000000000008000000000000000000000000000400000000000000000000020000000000000000000800000080000000000000000010000000000000000400000000000000000000004000000000000000000100000000000000000000000000000000000000000000000000100000000000000000080000000000000002000000000000000000000000000000000000000000000000000020000000000000000000000000000000000000000000000000000000000000000000",
      "type": "0x2",
      "transactionHash": "0x5a6dc5a4e5d2900021cd5d45b81b56ab28ad6658bbb0d4cdb6ff6b7faaa8e42b",
      "transactionIndex": "0x53",
      "blockHash": "0x4cc240d51280a9371898519ae72bf45a9e29e2bef40c78c4be5bfa28589ff57f",
      "blockNumber": "0x60d696",
      "gasUsed": "0x1e931",
      "effectiveGasPrice": "0x1f4c9186",
      "from": "0x944de75ae5e4e9243ff22a32cde7a50a0754d592",
      "to": "0x9b75e1bac0e865a6268e420f719fbb89e3abd412",
      "contractAddress": null
    }
  ],
  "libraries": [],
  "pending": [],
  "returns": {},
  "timestamp": 1721503861,
  "chain": 11155111,
  "commit": "96b8beb"
}