{
  "transactions": [
    {
      "hash": "0xc922904dd7e2cb6abb919b854ecbe802a1068b63b19f333b187a722b517feef3",
      "transactionType": "CALL",
      "contractName": null,
      "contractAddress": "0x20b033da3b8bc11bdb852d64658c27126eb6c330",
      "function": "mintNFT(string)",
      "arguments": [
        "\"ipfs://bafybeicv5l4y4la3v6yzgrl5f4ytsfp24smurojwiluykjit6nvlsqspti/\""
      ],
      "transaction": {
        "from": "0x944de75ae5e4e9243ff22a32cde7a50a0754d592",
        "to": "0x20b033da3b8bc11bdb852d64658c27126eb6c330",
        "gas": "0x3d4f7",
        "value": "0x0",
        "input": "0xfb37e88300000000000000000000000000000000000000000000000000000000000000200000000000000000000000000000000000000000000000000000000000000043697066733a2f2f626166796265696376356c3479346c61337636797a67726c35663479747366703234736d75726f6a77696c75796b6a6974366e766c7371737074692f0000000000000000000000000000000000000000000000000000000000",
        "nonce": "0xc",
        "chainId": "0xaa36a7"
      },
      "additionalContracts": [],
      "isFixedGasLimit": false
    }
  ],
  "receipts": [
    {
      "status": "0x1",
      "cumulativeGasUsed": "0x8c9932",
      "logs": [
        {
          "address": "0x20b033da3b8bc11bdb852d64658c27126eb6c330",
          "topics": [
            "0xddf252ad1be2c89b69c2b068fc378daa952ba7f163c4a11628f55a4df523b3ef",
            "0x0000000000000000000000000000000000000000000000000000000000000000",
            "0x000000000000000000000000944de75ae5e4e9243ff22a32cde7a50a0754d592",
            "0x0000000000000000000000000000000000000000000000000000000000000000"
          ],
          "data": "0x",
          "blockHash": "0x38f75835c66d1898a50d01f7b6d617c080654c80811a3f62bc8dd5aa3d419dbb",
          "blockNumber": "0x60d6e6",
          "transactionHash": "0xc922904dd7e2cb6abb919b854ecbe802a1068b63b19f333b187a722b517feef3",
          "transactionIndex": "0x32",
          "logIndex": "0x56",
          "removed": false
        }
      ],
      "logsBloom": "0x00000000000000000000000000000000000000000004000000000000000000000000000000000100000000000000000000000000000000000000000000000000000000000000000000000008000000000000000000000000000400000000000000000000020000000000000000000800000080000000000000000010000000000000000000000000000000000000000000000000000000000000000000000000000000000000000000000020000020000000000000000000000000000000000000000002000000000000000000000000000000000000000000000000000020000000000000000000000000000000000000000000000000000000000000000000",
      "type": "0x2",
      "transactionHash": "0xc922904dd7e2cb6abb919b854ecbe802a1068b63b19f333b187a722b517feef3",
      "transactionIndex": "0x32",
      "blockHash": "0x38f75835c66d1898a50d01f7b6d617c080654c80811a3f62bc8dd5aa3d419dbb",
      "blockNumber": "0x60d6e6",
      "gasUsed": "0x2c634",
      "effectiveGasPrice": "0x46f009",
      "from": "0x944de75ae5e4e9243ff22a32cde7a50a0754d592",
      "to": "0x20b033da3b8bc11bdb852d64658c27126eb6c330",
      "contractAddress": null
    }
  ],
  "libraries": [],
  "pending": [],
  "returns": {},
  "timestamp": 1721505074,
  "chain": 11155111,
  "commit": "96b8beb"
}