{
  "transactions": [
    {
      "hash": "0xffcf47f49999576ba3930d2d003f79d7b9a66cff1d6e293ed66fefad87d1b02b",
      "transactionType": "CALL",
      "contractName": null,
      "contractAddress": "0x9b75e1bac0e865a6268e420f719fbb89e3abd412",
      "function": "mintNFT(string)",
      "arguments": [
        "\"ipfs://bafybeidrdk5wjpt2bibtdg2fm3hecpurqaqvsqp3iuwjavv2yv5ddjfzfu/metadata/sai.json\""
      ],
      "transaction": {
        "from": "0x944de75ae5e4e9243ff22a32cde7a50a0754d592",
        "to": "0x9b75e1bac0e865a6268e420f719fbb89e3abd412",
        "gas": "0x31d8a",
        "value": "0x0",
        "input": "0xfb37e88300000000000000000000000000000000000000000000000000000000000000200000000000000000000000000000000000000000000000000000000000000054697066733a2f2f626166796265696472646b35776a70743262696274646732666d3368656370757271617176737170336975776a6176763279763564646a667a66752f6d657461646174612f7361692e6a736f6e000000000000000000000000",
        "nonce": "0x4",
        "chainId": "0xaa36a7"
      },
      "additionalContracts": [],
      "isFixedGasLimit": false
    }
  ],
  "receipts": [
    {
      "status": "0x1",
      "cumulativeGasUsed": "0xb77ffd",
      "logs": [
        {
          "address": "0x9b75e1bac0e865a6268e420f719fbb89e3abd412",
          "topics": [
            "0xddf252ad1be2c89b69c2b068fc378daa952ba7f163c4a11628f55a4df523b3ef",
            "0x0000000000000000000000000000000000000000000000000000000000000000",
            "0x000000000000000000000000944de75ae5e4e9243ff22a32cde7a50a0754d592",
            "0x0000000000000000000000000000000000000000000000000000000000000003"
          ],
          "data": "0x",
          "blockHash": "0x9c94878330755bf59a77619f3649d6fb349113c552e23ffb3358bb489ba5b41b",
          "blockNumber": "0x60d650",
          "transactionHash": "0xffcf47f49999576ba3930d2d003f79d7b9a66cff1d6e293ed66fefad87d1b02b",
          "transactionIndex": "0x6e",
          "logIndex": "0x92",
          "removed": false
        }
      ],
      "logsBloom": "0x00000000000000000000000000000000000000000000000000000000000000000000000000000100000000000000000000000000020000000000000000000000000000000000000000000008000000000000000000000000000400000000000000000000020000000000000000000800000080000000000000000010000000000000000000000000000000000000004000000000000000000100000000000000000000000000000000000000000000000000100000800000000000000000400000000002000000000000000000000000000000000000000000000000000020000000000000000000000000000000000000000000000000000000000000000000",
      "type": "0x2",
      "transactionHash": "0xffcf47f49999576ba3930d2d003f79d7b9a66cff1d6e293ed66fefad87d1b02b",
      "transactionIndex": "0x6e",
      "blockHash": "0x9c94878330755bf59a77619f3649d6fb349113c552e23ffb3358bb489ba5b41b",
      "blockNumber": "0x60d650",
      "gasUsed": "0x24168",
      "effectiveGasPrice": "0x7acbec",
      "from": "0x944de75ae5e4e9243ff22a32cde7a50a0754d592",
      "to": "0x9b75e1bac0e865a6268e420f719fbb89e3abd412",
      "contractAddress": null
    }
  ],
  "libraries": [],
  "pending": [],
  "returns": {},
  "timestamp": 1721502747,
  "chain": 11155111,
  "commit": "96b8beb"
}