{
  "transactions": [
    {
      "hash": "0x6c347709bb647a699f327bb163175e3608d95eeb4e85e7b525504bcf7d58b1dc",
      "transactionType": "CALL",
      "contractName": null,
      "contractAddress": "0x9b75e1bac0e865a6268e420f719fbb89e3abd412",
      "function": "mintNFT(string)",
      "arguments": [
        "\"ipfs://bafybeifu5zoo6744rbsuzicj6yhjg6ny7i3x25dflx2rzjzscrp5vycqb4/sai.json\""
      ],
      "transaction": {
        "from": "0x944de75ae5e4e9243ff22a32cde7a50a0754d592",
        "to": "0x9b75e1bac0e865a6268e420f719fbb89e3abd412",
        "gas": "0x31cf4",
        "value": "0x0",
        "input": "0xfb37e8830000000000000000000000000000000000000000000000000000000000000020000000000000000000000000000000000000000000000000000000000000004b697066733a2f2f626166796265696675357a6f6f36373434726273757a69636a3679686a67366e7937693378323564666c7832727a6a7a73637270357679637162342f7361692e6a736f6e000000000000000000000000000000000000000000",
        "nonce": "0x3",
        "chainId": "0xaa36a7"
      },
      "additionalContracts": [],
      "isFixedGasLimit": false
    }
  ],
  "receipts": [
    {
      "status": "0x1",
      "cumulativeGasUsed": "0x63f3c2",
      "logs": [
        {
          "address": "0x9b75e1bac0e865a6268e420f719fbb89e3abd412",
          "topics": [
            "0xddf252ad1be2c89b69c2b068fc378daa952ba7f163c4a11628f55a4df523b3ef",
            "0x0000000000000000000000000000000000000000000000000000000000000000",
            "0x000000000000000000000000944de75ae5e4e9243ff22a32cde7a50a0754d592",
            "0x0000000000000000000000000000000000000000000000000000000000000002"
          ],
          "data": "0x",
          "blockHash": "0x48afd28e2a9c5427ec1802f217ff5dcfdea5f7e56d2e74f5a3e829ec39d23178",
          "blockNumber": "0x60d632",
          "transactionHash": "0x6c347709bb647a699f327bb163175e3608d95eeb4e85e7b525504bcf7d58b1dc",
          "transactionIndex": "0x3f",
          "logIndex": "0x52",
          "removed": false
        }
      ],
      "logsBloom": "0x04000000000000000000000000000000000000000000000000000000000000000000000000000100000000000000000000000000000000000000000000000000000000000000000000000008000000000000000000000000000400000000000000000000020000000000000000000800000080000000000000000010000000000000000000000000000000000000004000000000000000000100000000000000000000000000000000000100000000000000100000000000000000000000000000000002000000000000000000000000000000000000000000000000000020000000000000000000000000000000000000000000008000000000000000000000",
      "type": "0x2",
      "transactionHash": "0x6c347709bb647a699f327bb163175e3608d95eeb4e85e7b525504bcf7d58b1dc",
      "transactionIndex": "0x3f",
      "blockHash": "0x48afd28e2a9c5427ec1802f217ff5dcfdea5f7e56d2e74f5a3e829ec39d23178",
      "blockNumber": "0x60d632",
      "gasUsed": "0x240fc",
      "effectiveGasPrice": "0x497843",
      "from": "0x944de75ae5e4e9243ff22a32cde7a50a0754d592",
      "to": "0x9b75e1bac0e865a6268e420f719fbb89e3abd412",
      "contractAddress": null
    }
  ],
  "libraries": [],
  "pending": [],
  "returns": {},
  "timestamp": 1721502291,
  "chain": 11155111,
  "commit": "96b8beb"
}