{
  "transactions": [
    {
      "hash": "0x91653d84dc650629e3ab3656fbf06d76f386ca8f51b4a4d7249afa448d745309",
      "transactionType": "CALL",
      "contractName": null,
      "contractAddress": "0x9b75e1bac0e865a6268e420f719fbb89e3abd412",
      "function": "mintNFT(string)",
      "arguments": [
        "\"ipfs://QmU83BCvUPeu1M4ktkJUGviNGWTQBaa4R1Ut8Zhr6ciKzq\""
      ],
      "transaction": {
        "from": "0x944de75ae5e4e9243ff22a32cde7a50a0754d592",
        "to": "0x9b75e1bac0e865a6268e420f719fbb89e3abd412",
        "gas": "0x2a31c",
        "value": "0x0",
        "input": "0xfb37e88300000000000000000000000000000000000000000000000000000000000000200000000000000000000000000000000000000000000000000000000000000035697066733a2f2f516d55383342437655506575314d346b746b4a554776694e475754514261613452315574385a68723663694b7a710000000000000000000000",
        "nonce": "0x9",
        "chainId": "0xaa36a7"
      },
      "additionalContracts": [],
      "isFixedGasLimit": false
    }
  ],
  "receipts": [
    {
      "status": "0x1",
      "cumulativeGasUsed": "0x59bc71",
      "logs": [
        {
          "address": "0x9b75e1bac0e865a6268e420f719fbb89e3abd412",
          "topics": [
            "0xddf252ad1be2c89b69c2b068fc378daa952ba7f163c4a11628f55a4df523b3ef",
            "0x0000000000000000000000000000000000000000000000000000000000000000",
            "0x000000000000000000000000944de75ae5e4e9243ff22a32cde7a50a0754d592",
            "0x0000000000000000000000000000000000000000000000000000000000000008"
          ],
          "data": "0x",
          "blockHash": "0x05bccb0774aff3d2356b94841ef055a1cfe5c4f2c788051fc9b4b863704f733c",
          "blockNumber": "0x60d6d0",
          "transactionHash": "0x91653d84dc650629e3ab3656fbf06d76f386ca8f51b4a4d7249afa448d745309",
          "transactionIndex": "0x28",
          "logIndex": "0x31",
          "removed": false
        }
      ],
      "logsBloom": "0x00000000000000000000000000000000000000000000000000000000000000000000000000000100000000000000000000000000000080000000000000000000000000000000000000000008000000000000000000000000000400000000000000000000020000000000000000000800000080000000000000000010000000000080000000000000000000000000004000000000000000000100000000000000000000000000000000000000000000000000100000000000000000000000000040000002000000000000000000000000000000000000000000000000000020000000000000000000000000000000000000000000000000000000000000000000",
      "type": "0x2",
      "transactionHash": "0x91653d84dc650629e3ab3656fbf06d76f386ca8f51b4a4d7249afa448d745309",
      "transactionIndex": "0x28",
      "blockHash": "0x05bccb0774aff3d2356b94841ef055a1cfe5c4f2c788051fc9b4b863704f733c",
      "blockNumber": "0x60d6d0",
      "gasUsed": "0x1e8c5",
      "effectiveGasPrice": "0x1e1a0cd7",
      "from": "0x944de75ae5e4e9243ff22a32cde7a50a0754d592",
      "to": "0x9b75e1bac0e865a6268e420f719fbb89e3abd412",
      "contractAddress": null
    }
  ],
  "libraries": [],
  "pending": [],
  "returns": {},
  "timestamp": 1721504764,
  "chain": 11155111,
  "commit": "96b8beb"
}